{"contracts/EpochManager.sol":{"EpochManager":{"abi":[{"inputs":[{"internalType":"uint256","name":"_epochLength","type":"uint256"}],"stateMutability":"nonpayable","type":"constructor"},{"anonymous":false,"inputs":[{"indexed":true,"internalType":"uint256","name":"epochId","type":"uint256"},{"indexed":false,"internalType":"uint256","name":"yield","type":"uint256"}],"name":"NewEpoch","type":"event"},{"inputs":[],"name":"epochLength","outputs":[{"internalType":"uint256","name":"","type":"uint256"}],"stateMutability":"view","type":"function"},{"inputs":[{"internalType":"uint256","name":"","type":"uint256"}],"name":"epochYield","outputs":[{"internalType":"uint256","name":"","type":"uint256"}],"stateMutability":"view","type":"function"},{"inputs":[],"name":"getCurrentEpoch","outputs":[{"internalType":"uint256","name":"","type":"uint256"}],"stateMutability":"view","type":"function"},{"inputs":[{"internalType":"uint256","name":"epochId","type":"uint256"},{"internalType":"uint256","name":"yieldAmount","type":"uint256"}],"name":"setYieldForEpoch","outputs":[],"stateMutability":"nonpayable","type":"function"},{"inputs":[],"name":"startBlock","outputs":[{"internalType":"uint256","name":"","type":"uint256"}],"stateMutability":"view","type":"function"}],"evm":{"bytecode":{"linkReferences":{},"object":"60a060405234801561001057600080fd5b5060405161029b38038061029b83398101604081905261002f9161003b565b60805243600055610054565b60006020828403121561004d57600080fd5b5051919050565b608051610226610075600039600081816091015261013001526102266000f3fe608060405234801561001057600080fd5b50600436106100575760003560e01c8063267cc83c1461005c57806348cd4cb11461007157806357d775f81461008c578063b97dd9e2146100b3578063f097b4d8146100bb575b600080fd5b61006f61006a36600461016c565b6100db565b005b61007a60005481565b60405190815260200160405180910390f35b61007a7f000000000000000000000000000000000000000000000000000000000000000081565b61007a61012c565b61007a6100c936600461018e565b60016020526000908152604090205481565b600082815260016020526040908190208290555182907f3ef85928df9ae51bdb3eb4c00ec73b92b82307f319ac1b029de14796a0972609906101209084815260200190565b60405180910390a25050565b60007f00000000000000000000000000000000000000000000000000000000000000006000544361015d91906101a7565b61016791906101ce565b905090565b6000806040838503121561017f57600080fd5b50508035926020909101359150565b6000602082840312156101a057600080fd5b5035919050565b818103818111156101c857634e487b7160e01b600052601160045260246000fd5b92915050565b6000826101eb57634e487b7160e01b600052601260045260246000fd5b50049056fea2646970667358221220e2f52a85e5f02d45b9ac96748568bb10dae2c6b5f75476148e6dd889d756c78c64736f6c63430008140033","opcodes":"PUSH1 0xA0 PUSH1 0x40 MSTORE CALLVALUE DUP1 ISZERO PUSH2 0x10 JUMPI PUSH1 0x0 DUP1 REVERT JUMPDEST POP PUSH1 0x40 MLOAD PUSH2 0x29B CODESIZE SUB DUP1 PUSH2 0x29B DUP4 CODECOPY DUP2 ADD PUSH1 0x40 DUP2 SWAP1 MSTORE PUSH2 0x2F SWAP2 PUSH2 0x3B JUMP JUMPDEST PUSH1 0x80 MSTORE NUMBER PUSH1 0x0 SSTORE PUSH2 0x54 JUMP JUMPDEST PUSH1 0x0 PUSH1 0x20 DUP3 DUP5 SUB SLT ISZERO PUSH2 0x4D JUMPI PUSH1 0x0 DUP1 REVERT JUMPDEST POP MLOAD SWAP2 SWAP1 POP JUMP JUMPDEST PUSH1 0x80 MLOAD PUSH2 0x226 PUSH2 0x75 PUSH1 0x0 CODECOPY PUSH1 0x0 DUP2 DUP2 PUSH1 0x91 ADD MSTORE PUSH2 0x130 ADD MSTORE PUSH2 0x226 PUSH1 0x0 RETURN INVALID PUSH1 0x80 PUSH1 0x40 MSTORE CALLVALUE DUP1 ISZERO PUSH2 0x10 JUMPI PUSH1 0x0 DUP1 REVERT JUMPDEST POP PUSH1 0x4 CALLDATASIZE LT PUSH2 0x57 JUMPI PUSH1 0x0 CALLDATALOAD PUSH1 0xE0 SHR DUP1 PUSH4 0x267CC83C EQ PUSH2 0x5C JUMPI DUP1 PUSH4 0x48CD4CB1 EQ PUSH2 0x71 JUMPI DUP1 PUSH4 0x57D775F8 EQ PUSH2 0x8C JUMPI DUP1 PUSH4 0xB97DD9E2 EQ PUSH2 0xB3 JUMPI DUP1 PUSH4 0xF097B4D8 EQ PUSH2 0xBB JUMPI JUMPDEST PUSH1 0x0 DUP1 REVERT JUMPDEST PUSH2 0x6F PUSH2 0x6A CALLDATASIZE PUSH1 0x4 PUSH2 0x16C JUMP JUMPDEST PUSH2 0xDB JUMP JUMPDEST STOP JUMPDEST PUSH2 0x7A PUSH1 0x0 SLOAD DUP2 JUMP JUMPDEST PUSH1 0x40 MLOAD SWAP1 DUP2 MSTORE PUSH1 0x20 ADD PUSH1 0x40 MLOAD DUP1 SWAP2 SUB SWAP1 RETURN JUMPDEST PUSH2 0x7A PUSH32 0x0 DUP2 JUMP JUMPDEST PUSH2 0x7A PUSH2 0x12C JUMP JUMPDEST PUSH2 0x7A PUSH2 0xC9 CALLDATASIZE PUSH1 0x4 PUSH2 0x18E JUMP JUMPDEST PUSH1 0x1 PUSH1 0x20 MSTORE PUSH1 0x0 SWAP1 DUP2 MSTORE PUSH1 0x40 SWAP1 KECCAK256 SLOAD DUP2 JUMP JUMPDEST PUSH1 0x0 DUP3 DUP2 MSTORE PUSH1 0x1 PUSH1 0x20 MSTORE PUSH1 0x40 SWAP1 DUP2 SWAP1 KECCAK256 DUP3 SWAP1 SSTORE MLOAD DUP3 SWAP1 PUSH32 0x3EF85928DF9AE51BDB3EB4C00EC73B92B82307F319AC1B029DE14796A0972609 SWAP1 PUSH2 0x120 SWAP1 DUP5 DUP2 MSTORE PUSH1 0x20 ADD SWAP1 JUMP JUMPDEST PUSH1 0x40 MLOAD DUP1 SWAP2 SUB SWAP1 LOG2 POP POP JUMP JUMPDEST PUSH1 0x0 PUSH32 0x0 PUSH1 0x0 SLOAD NUMBER PUSH2 0x15D SWAP2 SWAP1 PUSH2 0x1A7 JUMP JUMPDEST PUSH2 0x167 SWAP2 SWAP1 PUSH2 0x1CE JUMP JUMPDEST SWAP1 POP SWAP1 JUMP JUMPDEST PUSH1 0x0 DUP1 PUSH1 0x40 DUP4 DUP6 SUB SLT ISZERO PUSH2 0x17F JUMPI PUSH1 0x0 DUP1 REVERT JUMPDEST POP POP DUP1 CALLDATALOAD SWAP3 PUSH1 0x20 SWAP1 SWAP2 ADD CALLDATALOAD SWAP2 POP JUMP JUMPDEST PUSH1 0x0 PUSH1 0x20 DUP3 DUP5 SUB SLT ISZERO PUSH2 0x1A0 JUMPI PUSH1 0x0 DUP1 REVERT JUMPDEST POP CALLDATALOAD SWAP2 SWAP1 POP JUMP JUMPDEST DUP2 DUP2 SUB DUP2 DUP2 GT ISZERO PUSH2 0x1C8 JUMPI PUSH4 0x4E487B71 PUSH1 0xE0 SHL PUSH1 0x0 MSTORE PUSH1 0x11 PUSH1 0x4 MSTORE PUSH1 0x24 PUSH1 0x0 REVERT JUMPDEST SWAP3 SWAP2 POP POP JUMP JUMPDEST PUSH1 0x0 DUP3 PUSH2 0x1EB JUMPI PUSH4 0x4E487B71 PUSH1 0xE0 SHL PUSH1 0x0 MSTORE PUSH1 0x12 PUSH1 0x4 MSTORE PUSH1 0x24 PUSH1 0x0 REVERT JUMPDEST POP DIV SWAP1 JUMP INVALID LOG2 PUSH5 0x6970667358 0x22 SLT KECCAK256 0xE2 CREATE2 0x2A DUP6 0xE5 CREATE 0x2D GASLIMIT 0xB9 0xAC SWAP7 PUSH21 0x8568BB10DAE2C6B5F75476148E6DD889D756C78C64 PUSH20 0x6F6C634300081400330000000000000000000000 "},"methodIdentifiers":{"epochLength()":"57d775f8","epochYield(uint256)":"f097b4d8","getCurrentEpoch()":"b97dd9e2","setYieldForEpoch(uint256,uint256)":"267cc83c","startBlock()":"48cd4cb1"}}}}}