{
  "_format": "hh-sol-artifact-1",
  "contractName": "EpochManager",
  "sourceName": "contracts/EpochManager.sol",
  "abi": [
    {
      "inputs": [
        {
          "internalType": "uint256",
          "name": "_epochLength",
          "type": "uint256"
        }
      ],
      "stateMutability": "nonpayable",
      "type": "constructor"
    },
    {
      "anonymous": false,
      "inputs": [
        {
          "indexed": true,
          "internalType": "uint256",
          "name": "epochId",
          "type": "uint256"
        },
        {
          "indexed": false,
          "internalType": "uint256",
          "name": "yield",
          "type": "uint256"
        }
      ],
      "name": "NewEpoch",
      "type": "event"
    },
    {
      "inputs": [],
      "name": "epochLength",
      "outputs": [
        {
          "internalType": "uint256",
          "name": "",
          "type": "uint256"
        }
      ],
      "stateMutability": "view",
      "type": "function"
    },
    {
      "inputs": [
        {
          "internalType": "uint256",
          "name": "",
          "type": "uint256"
        }
      ],
      "name": "epochYield",
      "outputs": [
        {
          "internalType": "uint256",
          "name": "",
          "type": "uint256"
        }
      ],
      "stateMutability": "view",
      "type": "function"
    },
    {
      "inputs": [],
      "name": "getCurrentEpoch",
      "outputs": [
        {
          "internalType": "uint256",
          "name": "",
          "type": "uint256"
        }
      ],
      "stateMutability": "view",
      "type": "function"
    },
    {
      "inputs": [
        {
          "internalType": "uint256",
          "name": "epochId",
          "type": "uint256"
        },
        {
          "internalType": "uint256",
          "name": "yieldAmount",
          "type": "uint256"
        }
      ],
      "name": "setYieldForEpoch",
      "outputs": [],
      "stateMutability": "nonpayable",
      "type": "function"
    },
    {
      "inputs": [],
      "name": "startBlock",
      "outputs": [
        {
          "internalType": "uint256",
          "name": "",
          "type": "uint256"
        }
      ],
      "stateMutability": "view",
      "type": "function"
    }
  ],
  "bytecode": "0x60a060405234801561001057600080fd5b5060405161029b38038061029b83398101604081905261002f9161003b565b60805243600055610054565b60006020828403121561004d57600080fd5b5051919050565b608051610226610075600039600081816091015261013001526102266000f3fe608060405234801561001057600080fd5b50600436106100575760003560e01c8063267cc83c1461005c57806348cd4cb11461007157806357d775f81461008c578063b97dd9e2146100b3578063f097b4d8146100bb575b600080fd5b61006f61006a36600461016c565b6100db565b005b61007a60005481565b60405190815260200160405180910390f35b61007a7f000000000000000000000000000000000000000000000000000000000000000081565b61007a61012c565b61007a6100c936600461018e565b60016020526000908152604090205481565b600082815260016020526040908190208290555182907f3ef85928df9ae51bdb3eb4c00ec73b92b82307f319ac1b029de14796a0972609906101209084815260200190565b60405180910390a25050565b60007f00000000000000000000000000000000000000000000000000000000000000006000544361015d91906101a7565b61016791906101ce565b905090565b6000806040838503121561017f57600080fd5b50508035926020909101359150565b6000602082840312156101a057600080fd5b5035919050565b818103818111156101c857634e487b7160e01b600052601160045260246000fd5b92915050565b6000826101eb57634e487b7160e01b600052601260045260246000fd5b50049056fea2646970667358221220e2f52a85e5f02d45b9ac96748568bb10dae2c6b5f75476148e6dd889d756c78c64736f6c63430008140033",
  "linkReferences": {},
  "deployedLinkReferences": {}
}