{
  "_format": "hh-sol-artifact-1",
  "contractName": "wUSDmVault",
  "sourceName": "contracts/wUSDmVault.sol",
  "abi": [
    {
      "inputs": [
        {
          "internalType": "address",
          "name": "_usdm",
          "type": "address"
        },
        {
          "internalType": "address",
          "name": "_epochManager",
          "type": "address"
        }
      ],
      "stateMutability": "nonpayable",
      "type": "constructor"
    },
    {
      "anonymous": false,
      "inputs": [
        {
          "indexed": true,
          "internalType": "address",
          "name": "user",
          "type": "address"
        },
        {
          "indexed": false,
          "internalType": "uint256",
          "name": "amount",
          "type": "uint256"
        }
      ],
      "name": "Unwrapped",
      "type": "event"
    },
    {
      "anonymous": false,
      "inputs": [
        {
          "indexed": true,
          "internalType": "address",
          "name": "user",
          "type": "address"
        },
        {
          "indexed": false,
          "internalType": "uint256",
          "name": "amount",
          "type": "uint256"
        },
        {
          "indexed": false,
          "internalType": "uint256",
          "name": "epoch",
          "type": "uint256"
        }
      ],
      "name": "Wrapped",
      "type": "event"
    },
    {
      "inputs": [],
      "name": "epochManager",
      "outputs": [
        {
          "internalType": "contract EpochManager",
          "name": "",
          "type": "address"
        }
      ],
      "stateMutability": "view",
      "type": "function"
    },
    {
      "inputs": [
        {
          "internalType": "address",
          "name": "user",
          "type": "address"
        }
      ],
      "name": "getUserStakeSum",
      "outputs": [
        {
          "internalType": "uint256",
          "name": "total",
          "type": "uint256"
        }
      ],
      "stateMutability": "view",
      "type": "function"
    },
    {
      "inputs": [
        {
          "internalType": "address",
          "name": "",
          "type": "address"
        },
        {
          "internalType": "uint256",
          "name": "",
          "type": "uint256"
        }
      ],
      "name": "stakes",
      "outputs": [
        {
          "internalType": "uint256",
          "name": "amount",
          "type": "uint256"
        },
        {
          "internalType": "uint256",
          "name": "startEpoch",
          "type": "uint256"
        }
      ],
      "stateMutability": "view",
      "type": "function"
    },
    {
      "inputs": [
        {
          "internalType": "uint256",
          "name": "index",
          "type": "uint256"
        }
      ],
      "name": "unwrap",
      "outputs": [],
      "stateMutability": "nonpayable",
      "type": "function"
    },
    {
      "inputs": [],
      "name": "usdm",
      "outputs": [
        {
          "internalType": "contract IERC20",
          "name": "",
          "type": "address"
        }
      ],
      "stateMutability": "view",
      "type": "function"
    },
    {
      "inputs": [
        {
          "internalType": "uint256",
          "name": "amount",
          "type": "uint256"
        }
      ],
      "name": "wrap",
      "outputs": [],
      "stateMutability": "nonpayable",
      "type": "function"
    }
  ],
  "bytecode": "0x60c060405234801561001057600080fd5b506040516107e93803806107e983398101604081905261002f91610062565b6001600160a01b039182166080521660a052610095565b80516001600160a01b038116811461005d57600080fd5b919050565b6000806040838503121561007557600080fd5b61007e83610046565b915061008c60208401610046565b90509250929050565b60805160a05161071b6100ce6000396000818160cf01526104cf015260008181610121015281816103400152610455015261071b6000f3fe608060405234801561001057600080fd5b50600436106100625760003560e01c8063584b62a1146100675780635912082614610094578063de0e9a3e146100b5578063e2d2bfe3146100ca578063ea598cb014610109578063ee138d0f1461011c575b600080fd5b61007a6100753660046105e7565b610143565b604080519283526020830191909152015b60405180910390f35b6100a76100a2366004610611565b61017f565b60405190815260200161008b565b6100c86100c3366004610633565b61024c565b005b6100f17f000000000000000000000000000000000000000000000000000000000000000081565b6040516001600160a01b03909116815260200161008b565b6100c8610117366004610633565b6103f2565b6100f17f000000000000000000000000000000000000000000000000000000000000000081565b6000602052816000526040600020818154811061015f57600080fd5b600091825260209091206002909102018054600190910154909250905082565b6001600160a01b03811660009081526020818152604080832080548251818502810185019093528083528493849084015b828210156101f6578382906000526020600020906002020160405180604001604052908160008201548152602001600182015481525050815260200190600101906101b0565b50505050905060005b81518110156102455781818151811061021a5761021a61064c565b602002602001015160000151836102319190610678565b92508061023d81610691565b9150506101ff565b5050919050565b33600090815260208190526040812080548390811061026d5761026d61064c565b906000526020600020906002020160405180604001604052908160008201548152602001600182015481525050905060008160000151116102e95760405162461bcd60e51b815260206004820152601160248201527004e6f7468696e6720746f20756e7772617607c1b60448201526064015b60405180910390fd5b33600090815260208190526040902080548390811061030a5761030a61064c565b6000918252602082206002919091020181815560010155805160405163a9059cbb60e01b815233600482015260248101919091527f00000000000000000000000000000000000000000000000000000000000000006001600160a01b03169063a9059cbb906044016020604051808303816000875af1158015610391573d6000803e3d6000fd5b505050506040513d601f19601f820116820180604052508101906103b591906106aa565b50805160405190815233907f95ae649bfaaef9def56a52f4fb2d9e8fa5496bb7082930e442c74cc76b03dcb3906020015b60405180910390a25050565b600081116104335760405162461bcd60e51b815260206004820152600e60248201526d125b9d985b1a5908185b5bdd5b9d60921b60448201526064016102e0565b6040516323b872dd60e01b8152336004820152306024820152604481018290527f00000000000000000000000000000000000000000000000000000000000000006001600160a01b0316906323b872dd906064016020604051808303816000875af11580156104a6573d6000803e3d6000fd5b505050506040513d601f19601f820116820180604052508101906104ca91906106aa565b5060007f00000000000000000000000000000000000000000000000000000000000000006001600160a01b031663b97dd9e26040518163ffffffff1660e01b8152600401602060405180830381865afa15801561052b573d6000803e3d6000fd5b505050506040513d601f19601f8201168201806040525081019061054f91906106cc565b3360008181526020818152604080832081518083018352888152808401878152825460018082018555938752958590209151600290960290910194855551930192909255815186815290810184905292935090917f727200b48f3c812bfb404b578574e1c03694edb122d80fa6dcb352a9e4f8a93891016103e6565b80356001600160a01b03811681146105e257600080fd5b919050565b600080604083850312156105fa57600080fd5b610603836105cb565b946020939093013593505050565b60006020828403121561062357600080fd5b61062c826105cb565b9392505050565b60006020828403121561064557600080fd5b5035919050565b634e487b7160e01b600052603260045260246000fd5b634e487b7160e01b600052601160045260246000fd5b8082018082111561068b5761068b610662565b92915050565b6000600182016106a3576106a3610662565b5060010190565b6000602082840312156106bc57600080fd5b8151801515811461062c57600080fd5b6000602082840312156106de57600080fd5b505191905056fea2646970667358221220e03ada33f0e3bf5235115a3581e937cb84ca12ec1d751db6cefe75287e56d35864736f6c63430008140033",
  "linkReferences": {},
  "deployedLinkReferences": {}
}