{
  "_format": "hh-sol-artifact-1",
  "contractName": "ZKYieldVerifier",
  "sourceName": "contracts/ZKYieldVerifier.sol",
  "abi": [
    {
      "anonymous": false,
      "inputs": [
        {
          "indexed": true,
          "internalType": "address",
          "name": "user",
          "type": "address"
        },
        {
          "indexed": true,
          "internalType": "uint256",
          "name": "epoch",
          "type": "uint256"
        }
      ],
      "name": "ProofInvalidated",
      "type": "event"
    },
    {
      "anonymous": false,
      "inputs": [
        {
          "indexed": true,
          "internalType": "address",
          "name": "user",
          "type": "address"
        },
        {
          "indexed": true,
          "internalType": "uint256",
          "name": "epoch",
          "type": "uint256"
        },
        {
          "indexed": false,
          "internalType": "uint256",
          "name": "yield",
          "type": "uint256"
        }
      ],
      "name": "ProofSubmitted",
      "type": "event"
    },
    {
      "inputs": [
        {
          "internalType": "address",
          "name": "user",
          "type": "address"
        },
        {
          "internalType": "uint256",
          "name": "epoch",
          "type": "uint256"
        }
      ],
      "name": "getVerifiedYield",
      "outputs": [
        {
          "internalType": "uint256",
          "name": "",
          "type": "uint256"
        }
      ],
      "stateMutability": "view",
      "type": "function"
    },
    {
      "inputs": [
        {
          "internalType": "address",
          "name": "user",
          "type": "address"
        },
        {
          "internalType": "uint256",
          "name": "epoch",
          "type": "uint256"
        }
      ],
      "name": "invalidateProof",
      "outputs": [],
      "stateMutability": "nonpayable",
      "type": "function"
    },
    {
      "inputs": [
        {
          "internalType": "address",
          "name": "",
          "type": "address"
        },
        {
          "internalType": "uint256",
          "name": "",
          "type": "uint256"
        }
      ],
      "name": "proofUsed",
      "outputs": [
        {
          "internalType": "bool",
          "name": "",
          "type": "bool"
        }
      ],
      "stateMutability": "view",
      "type": "function"
    },
    {
      "inputs": [
        {
          "internalType": "bytes",
          "name": "zkProof",
          "type": "bytes"
        }
      ],
      "name": "submitProof",
      "outputs": [
        {
          "internalType": "bool",
          "name": "",
          "type": "bool"
        }
      ],
      "stateMutability": "nonpayable",
      "type": "function"
    },
    {
      "inputs": [
        {
          "internalType": "address",
          "name": "",
          "type": "address"
        },
        {
          "internalType": "uint256",
          "name": "",
          "type": "uint256"
        }
      ],
      "name": "verifiedYields",
      "outputs": [
        {
          "internalType": "uint256",
          "name": "",
          "type": "uint256"
        }
      ],
      "stateMutability": "view",
      "type": "function"
    }
  ],
  "bytecode": "0x608060405234801561001057600080fd5b506103b6806100206000396000f3fe608060405234801561001057600080fd5b50600436106100575760003560e01c806309ea356d1461005c5780630c8af4941461009f578063330d72b7146100b25780633c4819bd146100c7578063cf968e2b14610109575b600080fd5b61008a61006a3660046102ad565b600160209081526000928352604080842090915290825290205460ff1681565b60405190151581526020015b60405180910390f35b61008a6100ad3660046102d9565b610131565b6100c56100c03660046102ad565b61023a565b005b6100fb6100d53660046102ad565b6001600160a01b0391909116600090815260208181526040808320938352929052205490565b604051908152602001610096565b6100fb6101173660046102ad565b600060208181529281526040808220909352908152205481565b60008080806101428587018761034b565b6001600160a01b0383166000908152600160209081526040808320858452909152902054929550909350915060ff16156101b75760405162461bcd60e51b8152602060048201526012602482015271141c9bdbd988185b1c9958591e481d5cd95960721b604482015260640160405180910390fd5b6001600160a01b03831660008181526020818152604080832086845282528083208590558383526001808352818420878552835292819020805460ff191690931790925590518381528492917f9ae9921810446180076c4a12d2e38eed95315c91f61bcab622dbe844fb9f3030910160405180910390a350600195945050505050565b6001600160a01b0382166000818152600160208181526040808420868552909152808320805460ff1916909217909155518392917f126d35e12726ab8484f0cb4e09e9e6c869f926b23de162a493170028e626f5bb91a35050565b6001600160a01b03811681146102aa57600080fd5b50565b600080604083850312156102c057600080fd5b82356102cb81610295565b946020939093013593505050565b600080602083850312156102ec57600080fd5b823567ffffffffffffffff8082111561030457600080fd5b818501915085601f83011261031857600080fd5b81358181111561032757600080fd5b86602082850101111561033957600080fd5b60209290920196919550909350505050565b60008060006060848603121561036057600080fd5b833561036b81610295565b9560208501359550604090940135939250505056fea26469706673582212200f3a7742977765301f522a12c0dd8aecfdd230f13a9f02e40cc26265d7fd2b2264736f6c63430008140033",
  "linkReferences": {},
  "deployedLinkReferences": {}
}